:10000000F0C200001FC300001DC300001BC300009E
:1000100019C3000017C3000015C3000013C300007C
:1000200011C300000FC300000DC300000BC300008C
:1000300009C3000007C3000005C3000003C300009C
:1000400001C30000FFC20000FDC20000FBC20000AF
:10005000F9C20000F7C20000F5C200000C9468204D
:10006000F1C200000C94DD230C941324EBC20000B9
:10007000E9C20000E7C20000E5C20000E3C20000E0
:10008000E1C20000DFC20000DDC20000DBC20000F0
:10009000D9C20000D7C20000D5C20000D3C2000000
:1000A000D1C20000CFC20000CDC20000CBC2000010
:1000B000C9C20000C7C20000C5C20000C3C2000020
:1000C000C1C20000BFC20000BDC20000BBC2000030
:1000D000B9C20000B7C20000B5C20000B3C2000040
:1000E000B1C20000C321C621B521B921BF21FD2124
:1000F000CA21CE21D421D821DC21E221E621EA2126
:10010000FD21F021F421F82108000000BE922449CD
:10011000123EABAAAA2ABECDCCCC4C3E0000008039
:10012000BEABAAAAAA3E00000000BF000000803FAC
:100130000000000000084178D3BB4387D1133D196C
:100140000E3CC3BD4282AD2B3E68EC8276BED98F99
:10015000E1A93E4C80EFFFBE01C4FF7F3F000000DD
:1001600000004F4B21004661696C65640063617259
:100170006C6F73726F6472696775657369742F66EB
:10018000656564732F74656D7065726174757265F1
:10019000003464623030323063363438393461369A
:1001A0006661326638316338376662653839643083
:1001B00038006361726C6F73726F64726967756522
:1001C0007369740031353A34313A34336361726C97
:1001D0006F73726F64726967756573697400696FB4
:1001E0002E61646166727569742E636F6D004D5186
:1001F000545400556E6B6E6F776E206572726F721D
:10020000004661696C656420746F20737562736366
:100210007269626500436F6E6E656374696F6E200C
:100220006661696C656400596F7520686176652048
:100230006265656E2062616E6E65642066726F6DC8
:1002400020636F6E6E656374696E672E20506C65F7
:1002500061736520636F6E746163742074686520D8
:100260004D515454207365727665722061646D69D6
:100270006E6973747261746F7220666F72206D6F35
:1002800072652064657461696C732E0045786365DE
:1002900065646564207265636F6E6E656374207259
:1002A000617465206C696D69742E20506C65617392
:1002B000652074727920616761696E206C61746574
:1002C000722E004E6F7420617574686F72697A6562
:1002D0006420746F20636F6E6E656374005468658C
:1002E000206461746120696E20746865207573658F
:1002F00072206E616D65206F722070617373776F0D
:100300007264206973206D616C666F726D65640044
:10031000546865204D515454207365727669636545
:1003200020697320756E617661696C61626C65002D
:1003300054686520436C69656E74206964656E74E9
:10034000696669657220697320636F727265637490
:10035000205554462D3820627574206E6F742061CC
:100360006C6C6F77656420627920746865205365D2
:1003700072766572005468652053657276657220E6
:10038000646F6573206E6F7420737570706F727414
:1003900020746865206C6576656C206F66207468D3
:1003A00065204D5154542070726F746F636F6C20D0
:1003B0007265717565737465640044726F70706501
:1003C000642061207061636B65740000000A0B0299
:1003D000090C0D0E080703040100000000000000D6
:1003E000000000000000000000000000000000000D
:1003F00000000000000000121110000000000000CA
:1004000000000000000000000000000000000000EC
:100410000001021020200808102040102040800217
:10042000010201080402010102040810204080803A
:1004300040201008040201800402018040201008BE
:100440000402010804020101020408102040800196
:100450000204081020408005050505070508080866
:1004600008020202020A0A08080404040401010145
:10047000010101010103030303030303030407074D
:10048000070C0C0C0C0C0C0C0C02020202060606EB
:1004900006060606060B0B0B0B0B0B0B0B000022C4
:1004A00000250028002B002E00310034000201003E
:1004B00000050108010B0100002100240027002A8B
:1004C000002D003000330001010000040107010A83
:1004D0000100407A10F35A00A0724E18090010A5CE
:1004E000D4E80000E87648170000E40B540200004E
:1004F000CA9A3B000000E1F50500008096980000D4
:100500000040420F000000A08601000000102700FC
:10051000000000E803000000006400000000000A82
:1005200000000000000100000000002C76D888DCEC
:10053000674F0823DFC1DFAE59E1B1B796E5E3E4C9
:1005400053C63AE651997696E8E6C28426EB898C42
:100550009B62ED407C6FFCEFBC9C9F40F2BAA56FA4
:10056000A5F490055A2AF75C936B6CF9676DC11B73
:10057000FCE0E40D47FEF520E6B500D0ED902E033B
:1005800000943577050080841E080000204E0A0084
:100590000000C80C333333330F986E12831141EFD0
:1005A0008D2114893BE65516CFFEE6DB18D1844B2E
:1005B000381BF77C1D901DA4BBE424203284725E9E
:1005C000228100C9F124ECA1E53D27007F05D50774
:1005D000CA0C9A1067127212BD14471F4524F024EA
:1005E000EB0511241FBECFEFD1E2DEBFCDBF00E08F
:1005F0000CBF14E0A0E0B2E0E4E6FDE500E00BBFD4
:1006000002C007900D92A231B107D9F726E0A2E10E
:10061000B4E001C01D92A73BB207E1F715E0C0EEC0
:10062000D5E000E006C022970109FE010BBF0E9441
:10063000452ACC3CD10780E00807A9F70E94002595
:100640000C94A12EDDCC2AE033E0FC013183208321
:1006500008952AE033E0FC01318320830C940C25BB
:1006600087E194E00E94461E81112DC069E172E08D
:1006700080E196E00E946E2587E194E00E94941D3F
:100680008823D9F0682F87E194E00E94FB1BBC010E
:1006900080E196E00E94792560E372E080E196E0D7
:1006A0000E94892587E194E00E940A1C68E873E1B2
:1006B00080E090E00E94E120DFCF69E572E080E118
:1006C00096E00C9489250895CF92DF92EF92FF92E5
:1006D0000F931F930E94B220672B682B692B41F464
:1006E0000E94B220623071058105910508F476C040
:1006F0000E94B22060930C0570930D0580930E0547
:1007000090930F050091100510911105209112058D
:1007100030911305601771078207930740F46093C7
:1007200010057093110580931205909313050091A5
:1007300010051091110520911205309113056B01E0
:100740007C01C01AD10AE20AF30A970186010A3F26
:1007500011052105310508F441C06093100570931F
:100760001105809312059093130580ED95E00E948A
:10077000D41F69E672E080910106909102060E9402
:100780006E2561E772E080910106909102060E9459
:100790006E250E94B220AB01BC012AE030E08091BE
:1007A0000106909102060E942D2663E772E0809177
:1007B0000106909102060E946E2565E070E080E0DF
:1007C00090E00E94E1206AE070E080E090E00E940A
:1007D000E12061E080ED95E00E94102041DF8AE099
:1007E00095E00E94551FAB01BC01705822E030E03B
:1007F00080E196E00E9416278AE095E00E94551F4E
:10080000AB01BC01705822E082E194E00E941A1E04
:10081000811103C066E671E002C062E671E080E12A
:1008200096E00E94792568E873E180E090E01F91EE
:100830000F91FF90EF90DF90CF900C94E120EF921A
:10084000FF920F931F93CF93DF93CDB7DEB76897D7
:100850000FB6F894DEBF0FBECDBF6CE772E080E14B
:1008600096E00E94892540E060E082EF94E085D226
:100870006DE772E082EF94E00E946E2510EAE12EAF
:100880001FE0F12E00E010E020E63AEE40E050E0FC
:100890006AE072E088E895E00E948F0F892B09F0EA
:1008A0007FC06CE872E080E196E00E94892582EFCB
:1008B00094E05DD268EE73E080E090E00E94E12079
:1008C00064EB72E082EF94E00E946E2582EF94E088
:1008D0004ED223E034E03A8329838091E80490915A
:1008E000E904A091EA04B091EB048B839C83AD836F
:1008F000BE8338872F838091E2049091E304A09116
:10090000E404B091E50489879A87AB87BC873E876A
:100910002D878091DC049091DD04A091DE04B091DC
:10092000DF048F87988BA98BBA8B3C8B2B8B8091A4
:10093000EE049091EF04A091F004B091F1048D8B3E
:100940009E8BAF8BB88FCE0101967C018E01095F23
:100950001F4F9E01235F3F4FAE014D5E5F4F6AE028
:1009600072E088E895E00E942D1068EE73E080E068
:1009700090E00E94E12064EC72E080E196E00E9449
:100980006E2565ED72E082EF94E00E946E2560EDC9
:1009900077E080E090E00E94E12082EF94E0E7D1F0
:1009A00068E875E0CE0101960E9474108B819C81ED
:1009B000AD81BE818093EE049093EF04A093F00488
:1009C000B093F10482EF94E0D2D140E060E082EF96
:1009D00094E0D3D163EE72E082EF94E00E946E2542
:1009E0000EEE14E078014AE050E0F80161918F01C9
:1009F00080E196E00E94392667E572E080E196E0AA
:100A00000E946E254AE050E0F701608182EF94E099
:100A10000E94392667E572E082EF94E00E946E251D
:100A2000F4E0023F1F07F1F665EA73E080E196E02B
:100A30000E946E2541E060E082EF94E09ED167EE77
:100A400072E082EF94E00E946E258AE095E00E94B9
:100A5000551FAB01BC01705822E030E082EF94E0FA
:100A60000E94162768960FB6F894DEBF0FBECDBF62
:100A7000DF91CF911F910F91FF90EF90089540ED7E
:100A800057E060E070E080ED95E00E94D61F20E026
:100A900032EC41E050E060E176E080ED95E00E94CC
:100AA000E81F80ED95E00E94D41F64EF72E0809112
:100AB0000106909102060E946E256AE070E080E0D7
:100AC00090E00E94E12041E060E080ED95E00E942E
:100AD0004D2026E040E052EC61E070E080E196E0DD
:100AE0000E947D2320E042E060E182EF94E05DD14E
:100AF000A6DE68EE73E080E090E00C94E120CF92F7
:100B0000EF92FF920F931F9300E020E040E060E03F
:100B100084E195E00E94C92460E070E08AE095E0FD
:100B20000E94511F94E0C92E25E0E22E06E027E046
:100B300048E069E082EF94E0CBD108EC20E048EA9D
:100B400060EC8CEE94E00E94C92400E02FEF4FEFA0
:100B50006FEF86EE94E00E94C92401E020E048EAAD
:100B600060EC80EE94E00E94C92408E028E048E0B0
:100B700068E08AED94E00E94C9248DEC94E00E9424
:100B80009C1131E9E32E31E0F32E02EB11E024EC6D
:100B900031E04BE557E06EED71E087E194E00E94B3
:100BA000E51A89E893E090931804809317048DEC7C
:100BB00094E09093CC048093CB0420E04DE651E088
:100BC00067E174E082E194E01F910F91FF90EF9054
:100BD000CF900C94131E8AE093E0909318048093B6
:100BE00017040895CF93CFB7F89480911D05811114
:100BF00027C0ECE8F4E08491E6E4F4E09491E82F77
:100C0000F0E0EE0FFF1FE954FB4FA591B4918C91DA
:100C1000892321F461E085E30E94372261E085E3C6
:100C20000E94FE218CB580618CBD8CB580648CBD2A
:100C300061E084E30E94FE2161E083E30E94FE21E3
:100C400080911D058F5F80931D05CFBFCF910895C3
:100C5000CF93DF93EC0160E08E810E94372281E028
:100C600090E00E94182161E08E810E94372281E08D
:100C700090E00E94182160E08E810E94372284E675
:100C800090E0DF91CF910C941821EF92FF920F9397
:100C90001F93CF93DF938C01C0E0D0E0E62EF12CC0
:100CA000B7010C2E02C0759567950A94E2F7617042
:100CB000F801EC0FFD1F87810E9437222196C43076
:100CC000D10571F7C801DF91CF911F910F91FF906E
:100CD000EF90BECFEF92FF920F931F93CF93DF93CE
:100CE0008C01C0E0D0E0E62EF12CB7010C2E02C042
:100CF000759567950A94E2F76170F801EC0FFD1F96
:100D000087810E9437222196C830D10571F7C8012A
:100D1000DF91CF911F910F91FF90EF9099CF1F938B
:100D2000CF93DF93EC01162F642F8C810E94372222
:100D30008D818F3F19F060E00E9437228F85612FEF
:100D400084FF05C0CE01DF91CF911F91C3CF70E02A
:100D500084E0759567958A95E1F7CE0196DF612F5E
:100D6000CE01DF91CF911F9190CF40E0D8CF61E0CD
:100D7000FCDF80ED97E00C941821443008F043E04C
:100D8000FC012389421710F04FEF420FFC01E40FE2
:100D9000F11D2489260F2068622FE7CFFC016089AE
:100DA000262F2460208B6C60E0CF0F931F93CF938E
:100DB000DF93EC01423018F08F8588608F874B8B72
:100DC0001C8A80E48D8B6E8B70E0605C7F4F6F8B34
:100DD000222329F0413019F48F8584608F8761E0E8
:100DE0008C810E94FE218D818F3F19F061E00E946D
:100DF000FE2161E08E810E94FE2100E010E08F85DF
:100E000084FF03C088E090E002C084E090E008170F
:100E1000190754F4FE01E00FF11F61E087810E9481
:100E2000FE210F5F1F4FEBCF80E593EC0E9418214E
:100E300060E08C810E94372260E08E810E94372220
:100E40008D818F3F19F060E00E9437226F8564FD2D
:100E500019C063E0CE0119DF84E991E10E941821F5
:100E600063E0CE0112DF84E991E10E94182163E082
:100E7000CE010BDF86E990E00E94182162E0CE01EE
:100E800004DF13C06062CE0170DF84E991E10E944B
:100E900018216F856062CE0168DF86E990E00E94CC
:100EA00018216F856062CE0160DF6F856062CE01C0
:100EB0005CDF84E0888BCE0171DFCE0158DF82E0F9
:100EC000898B66E0CE01DF91CF911F910F914DCFBD
:100ED000CF92EF920F93FC01138212828CE193E088
:100EE0009183808364838FEF858346832783008784
:100EF000E186C2861386148615861686178620E03C
:100F000041E060E1CF010F91EF90CF904ECF41E0F3
:100F100006DF81E090E008950E9624E1FC01119235
:100F20002A95E9F70895CF93DF93EC01625F7F4F35
:100F30000E94D524CE01DF91CF910895CF93DF9306
:100F4000EC016E5E7F4F0E94D524CE01DF91CF91E0
:100F50000895CF93DF93EC016A5E7F4F0E94D52402
:100F6000CE01DF91CF910895CF93DF93EC01625EC4
:100F70007F4F0E94D524CE01DF91CF91089580E369
:100F8000FB0180833296842F82958F7090E1899F38
:100F9000401911244A3014F4405D01C0495C429369
:100FA000882311F0482FEFCF08950F9300E020E041
:100FB00040E060E08EE195E00E94C9240F91089521
:100FC0006F927F928F929F92AF92BF92CF92DF9259
:100FD000EF92FF920F931F93CF93DF93CDB7DEB7BE
:100FE000AC970FB6F894DEBF0FBECDBF7C01862E46
:100FF000B42EA52E20E2922ECE0101966C01FC01AA
:10100000292D11922A95E9F70FEF2FEF4FEF6FEF90
:1010100086960E94C92483E094E09AA389A389A5B7
:101020009AA5ABA5BCA58BA39CA3ADA3BEA387012A
:101030000D5B1F4F43E450E0BE016F5D7F4FC80161
:101040000E94C712019609F4BCC081E089838A839B
:1010500086E0782E7B821C82F7016481758186810F
:1010600097810E94342A6D837E838F839887A98617
:10107000BA8680E890E09C878B874CE150E0B6010F
:10108000C8010E94D112F601292D11922A95E9F783
:10109000570188E0A80EB11CF501D60101900D9210
:1010A0007A94E1F740E150E0B601C8010E94D11204
:1010B000F60111929A94E9F796E0692E712C40E2BC
:1010C00050E0B601C8010E94D112F1E06F1A710818
:1010D000B1F783E6898392E89A8393E59B838C83B7
:1010E00085E38D8381E08E838F829DE3988797E0EF
:1010F00099878A8786E0F501DE011B9601900D92A3
:101100008A95E1F78CE0898B8A8B60E273E0CE01EF
:1011100043960E94362CF7014385BE01675E7F4FE0
:10112000C7012DDFF7014485BE01655E7F4FC70112
:1011300026DFF7014585BE01635E7F4FC7011FDFD4
:101140004EE150E0B601C8010E94D112F3E08F12C7
:101150001EC082E3898384E08A83F70196859B839E
:1011600097859C8390899D8391899E8396E39F8335
:101170008887828D8987838D8A87848D8B87858DEB
:101180008C874CE050E0B601C8010E94D11287E381
:10119000898386E08A8391E09B8393E09C838D839F
:1011A0008FE08E838AE38F838BE388878FEF898735
:1011B00049E050E0B601C8010E94D112C8010E9466
:1011C000CE12AC960FB6F894DEBF0FBECDBFDF9146
:1011D000CF911F910F91FF90EF90DF90CF90BF9034
:1011E000AF909F908F907F906F9008952F923F9235
:1011F0004F925F926F927F928F929F92AF92BF9227
:10120000CF92DF92EF92FF920F931F93CF93DF93D2
:10121000CDB7DEB7E3970FB6F894DEBF0FBECDBFF4
:101220007C012A013B0169010E94B2204B015C0153
:1012300087010D5B1F4FC8010E946B13181619061A
:1012400094F00E94B220681979098A099B09461610
:10125000570668067906F0F062E370E080E090E0FF
:101260000E94E120E8CF42E250E0BE016F5F7F4F75
:10127000C8010E940C138981823031F4F8018489FD
:1012800095898334910541F019A6C8010E94B212D4
:1012900089A566C18FEF64C16D817E818F8198853C
:1012A0000E94342A4B015C01F601608371838283C2
:1012B000938346E050E0B701685F7F4FCE014D96C3
:1012C0000E94182C892B99F4F70180819181A281C9
:1012D000B38188169906AA06BB0648F084819581D9
:1012E000A681B78188159905AA05BB0528F4C80110
:1012F0000E94B21280E034C189899A89AB89BC8985
:10130000F70186879787A08BB18B3EECC32ED12C3B
:10131000C8010E94E412F1E0CF1AD108C9F719A65A
:10132000C70182969BA78AA7F701B696FDA7ECA7EF
:1013300008969FA78EA73C976F01899699AB88ABBB
:101340003897FBABEAAB5701F6E1AF0EB11C470192
:101350008EE1880E911CC8010E9498121816190679
:101360000CF093CFC8010E94E4128333910509F475
:10137000CDC0F4F481309105B9F11CF4892B59F3F7
:10138000DFC083309105C1F1069709F0D9C0C801CB
:101390000E94E4123C0144E050E0B401C8010E9404
:1013A0000C13212C312C7724F4E06F1A71083FC004
:1013B0008A33910509F47EC03CF48533910561F0D0
:1013C000C69709F43FC0BCC08B33910509F488C0AF
:1013D0008F3F910501F2B4C0C8010E94E412C80118
:1013E0000E94E41289A7B7CFC8010E94E41244E02A
:1013F00050E06AA97BA93AC0C8010E94E4123C01EE
:1014000044E050E0B501C8010E940C13212C312C9E
:10141000772494E0691A7108261437040CF09BCFE6
:10142000C8010E94E412EFEF2E1A3E0AF5CF2614EF
:1014300037040CF090CFC8010E94E4128FEF281AF5
:10144000380AF5CFC8010E94E412782EF701828D88
:10145000811110C0838D81110DC0848D81110AC04E
:10146000858D811107C044E050E0B601C8010E949B
:101470000C1371CFE8A9F9A92080318042805380F4
:10148000B601CE0183960E94D5248DA19EA1AFA165
:10149000B8A582159305A405B50529F3212C312C97
:1014A000721409F458CFC8010E94E412FFEF2F1AFA
:1014B0003F0AF6CFC8010E94E41244E050E06CA558
:1014C0007DA5C8010E940C13F70166A177A180A534
:1014D00091A50E94342A66A377A380A791A73BCF4A
:1014E000C8010E94E41244E050E06EA57FA5C80147
:1014F0000E940C13F70162A573A584A595A50E940F
:10150000342A62A773A784A795A725CFC8010E9494
:10151000E41244E050E06AA57BA5C8010E940C13C8
:10152000F70162A173A184A195A10E94342A62A34C
:1015300073A384A395A366A777A780AB91AB0BCFCA
:10154000C8010E94E412382E612C712C361409F463
:1015500002CFC8010E94E412FFEF6F1A7F0AF6CF94
:10156000E3960FB6F894DEBF0FBECDBFDF91CF91EB
:101570001F910F91FF90EF90DF90CF90BF90AF90B1
:101580009F908F907F906F905F904F903F902F90A3
:1015900008952F923F924F925F926F927F928F9217
:1015A0009F92AF92BF92CF92DF92EF92FF920F93F2
:1015B0001F93CF93DF9300D01F921F92CDB7DEB75A
:1015C0008C0120ED37E040E050E061E070E080E029
:1015D00090E00E943927D80114966D937D938D93E6
:1015E0009C931797F80160837183828393834801EA
:1015F000F3E48F0E911CC401B6D764E470E0C4011B
:101600000E944013882309F42EC10E94B2206B016E
:101610007C01212C312C1D82580182E4A80EB11CC2
:1016200048EE442E43E0542E612C712CF50180814C
:10163000833009F400C181111EC0F80184819581B5
:10164000A681B7810196A11DB11D84839583A683D0
:10165000B7830E94B2206C197D098E099F09A301EE
:1016600092010E94F029A90161E0C801A9DC81E092
:10167000D5018C93C2C08430F1F4F8018481958146
:10168000A681B7810196A11DB11D84839583A68390
:10169000B7830E94B2206C197D098E099F09A301AE
:1016A00092010E94F029A90163E0C80189DCE2E00F
:1016B000D501EC93A2C0813059F5D801DA964D914D
:1016C0005D916D917C91DD979E012F5F3F4FC80129
:1016D0008DDD8D83823009F090C089819A81AB8144
:1016E000BC81F80184839583A683B7830E94B220CE
:1016F0006C197D098E099F09A30192010E94F029AE
:10170000A90163E0C8015CDCED81D501EC937BC0ED
:10171000823009F072C0D801DA964D915D916D91D9
:101720007C91DD979E012F5F3F4FC8015FDD8D8368
:10173000853009F05CC083E0F5018083F80182A167
:1017400093A1A4A1B5A1892B8A2B8B2B41F484E80A
:1017500093E0A0E0B0E082A393A3A4A3B5A3F80113
:1017600086A197A1A0A5B1A5892B8A2B8B2B61F40B
:1017700082A193A1A4A1B5A1B695A79597958795A8
:1017800086A397A3A0A7B1A7F80182A593A5A4A5B6
:10179000B5A5892B8A2B8B2BA9F482A193A1A4A197
:1017A000B5A1AC01BD0123E07695679557954795A6
:1017B0002A95D1F7841B950BA60BB70B82A793A78D
:1017C000A4A7B5A7F80186A197A1A0A5B1A586A752
:1017D00097A7A0ABB1AB82A593A5A4A5B5A582ABF5
:1017E00093ABA4ABB5AB22242394312C0CC0FD8168
:1017F000F63019F4D5011C9206C0BD81BF3F19F423
:10180000F50110821D82F1E02F16310409F40ECF8C
:101810000E94B2206C197D098E099F09D801D696C5
:101820002D913D914D915C91D99726173707480727
:10183000590708F0FBCEC40196D6F8018481958142
:10184000A681B7810196A11DB11D84839583A683CE
:10185000B7830E94B220F801FE9660837183828371
:101860009383C10102C080E090E00F900F900F9031
:101870000F900F90DF91CF911F910F91FF90EF90FC
:10188000DF90CF90BF90AF909F908F907F906F90A0
:101890005F904F903F902F900895CF92DF92EF92FC
:1018A000FF920F931F93CF93DF93EC016B011AA26A
:1018B0001BA21CA21DA21EA21FA218A619A61AA630
:1018C0001BA61CA61DA62EAB3FAB48AF59AFEAAE78
:1018D000FBAE0CAF1DAF8C01085F1F4F86E0F80117
:1018E00011928A95E9F7CE0117DB86E0F601D8015F
:1018F00001900D928A95E1F7FE01EE5BFF4F108299
:10190000CE01DF91CF911F910F91FF90EF90DF906B
:10191000CF903FCEFB014281538164817581FC01F0
:101920004283538364837583178216820895FB0173
:1019300020E080E090E06AE03191332309F170ED1E
:10194000730F7A3080F4DC016A9FC0016B9F900DA9
:101950001124C097830F911D37FD9A958F3F9105F4
:1019600059F350F314C03E3291F4233081F0DA0180
:10197000A20FB11D12968C932F5F80E090E0DCCF18
:10198000233029F4FA01858381E090E0089580E016
:1019900090E008950F9300E020E040E060E084E2F2
:1019A00095E00E94C9240F910895AF92BF92CF9203
:1019B000DF92EF92FF920F931F93CF93DF9300D0AC
:1019C0001F921F92CDB7DEB78C017B010E94B2201F
:1019D000F801778366837627672776277A8369837A
:1019E000085F1F4F42E050E0BE016F5F7F4FC801AC
:1019F000D8D581E090E09C838B8342E050E0BE012B
:101A00006D5F7F4FC801CDD580E091E09C838B83D3
:101A100042E050E0BE016D5F7F4FC801C2D51C821D
:101A20001B8242E050E0BE016D5F7F4FC801B9D517
:101A300042E050E0BE016D5F7F4FC801B2D542E089
:101A400050E0BE016D5F7F4FC801ABD56701F60165
:101A50008081882301F1F7016F018191811113C009
:101A60005601AE18BF081A141B0484F4AD8241E07D
:101A700050E0BE016B5F7F4FC80193D5A501B70150
:101A8000C8018FD503C08E3239F7EACF7601FFEF58
:101A9000EF1AFF0ADCCF1D8241E050E0BE016B5F10
:101AA0007F4FC8017ED5E12CFF24F394FC82EB82AA
:101AB00042E050E0BE016D5F7F4FC80172D5FC82ED
:101AC000EB8242E050E0BE016D5F7F4FC80169D5F7
:101AD00081E090E00F900F900F900F900F90DF91AA
:101AE000CF911F910F91FF90EF90DF90CF90BF901B
:101AF000AF9008954F925F926F927F928F929F92D4
:101B0000AF92BF92CF92DF92EF92FF920F931F930B
:101B1000CF93DF93CDB7DEB763970FB6F894DEBFF0
:101B20000FBECDBF7C015B016A010E94B2202B0178
:101B30003C018701085F1F4F4501A12CB12CC80152
:101B4000CAD51816190694F00E94B22064197509B6
:101B50008609970986169706A806B906D0F062E3AB
:101B600070E080E090E00E94E120E9CFF70142813F
:101B7000538164817581808D918DA28DB38D4817BD
:101B800059076A077B0741F4848D958DC59721F429
:101B900006C08FEF9FEFE1C08EEF9FEFDEC0C80160
:101BA000C7D40C97E4F04CE050E0BE016F5F7F4F6C
:101BB000C80132D56C818B810E9454279A8B898B06
:101BC000F701E680F7806A8189810E945427E81630
:101BD000F90641F489899A8997FF04C008C08DEFFE
:101BE0009FEFBBC0C801BED48CEF9FEFB6C08F7013
:101BF0009270892B29F0C801B5D48BEF9FEFADC04F
:101C000068858F810E9454275C01009719F0E12CB0
:101C1000F12C1DC0C801A6D48AEF9FEF9EC041E001
:101C200050E0BE01635F7F4FC801F6D48D858111FE
:101C300016C08D858111F3CFC801C6D4C801C4D4A4
:101C4000C801C2D4C801C0D4FFEFEF1AFF0A6E81E9
:101C50008D810E945427E816F90608F309C08D8586
:101C60009FEF980F9D87882321F3C801ADD4F7CF4C
:101C7000E12CF12C41E050E0BE016D5E7F4FC801C8
:101C8000CBD48B89982F907C59F4882361F08B8971
:101C90009FEF980F9B8B882331F0C80195D4F7CF25
:101CA000C80192D41B8A8B898111E4CF42E050E0B5
:101CB000BE01615F7F4FC801AFD442E050E0BE017A
:101CC000635F7F4FC801A8D4C8017ED4C8017CD40B
:101CD000C8017AD4C80178D442E050E0BE016F5EFA
:101CE0007F4FC80199D48F8598898115914029F437
:101CF0008D859E858115914019F0812C912C14C001
:101D000089899A898115944029F0C8012BD487EFDD
:101D10009FEF23C0B6016E5F7F4F44E050E0C801E3
:101D20007BD481E090E019C089899A899827892716
:101D300098278816990630F4C80146D42FEF821AE6
:101D4000920AF2CF8FEFE81AF80AEA14FB0409F0BE
:101D500091CFC80107D486EF9FEF63960FB6F89432
:101D6000DEBF0FBECDBFDF91CF911F910F91FF90CE
:101D7000EF90DF90CF90BF90AF909F908F907F902B
:101D80006F905F904F9008958F929F92AF92BF9205
:101D9000CF92DF92EF92FF920F931F93CF93DF9337
:101DA00000D000D0CDB7DEB78C015B016A01BFDD8A
:101DB0004C01009709F057C0F801428153816481BA
:101DC00075818091260590912705A0912805B091F5
:101DD0002905481759076A077B0709F448C00E947C
:101DE000B2207801F8E0EF0EF11C6F7077277C5F6E
:101DF000C70146D4813009F03EC083E094E09A8365
:101E00008983F80182819381A481B5818B839C832E
:101E1000AD83BE8345E350E0BE016F5F7F4FC701D6
:101E2000B6D3892B19F4812C912C1AC0B501C801A5
:101E3000BCDD892BC1F3C701B1D3892BA1F333E0FA
:101E4000A32EB12CA60168E873E1C80153DE4C0152
:101E5000F1E0AF1AB10821F08F3F2FEF920791F315
:101E6000C70181D308C088248394912C04C09EEFBD
:101E7000892E99249A94C40126960FB6F894DEBF51
:101E80000FBECDBFDF91CF911F910F91FF90EF90CB
:101E9000DF90CF90BF90AF909F908F90089520914A
:101EA0001C05222399F03FB7F89420911C0521309E
:101EB00059F42DB320931A054DB320911B0520959D
:101EC00024232DBB3FBF02C030931A058CBD9DBD9E
:101ED000089580911C05882361F09FB7F8942091A4
:101EE0001C0580911A05213019F48DBB9FBF089500
:101EF0008FBF089544E050E0BC0181E090E00C9475
:101F0000DD1844E050E0BC0185E090E00C94DD1861
:101F100044E050E0BC018FE090E00C94DD182F927B
:101F20003F924F925F926F927F928F929F92AF9269
:101F3000BF92CF92DF92EF92FF920F931F93CF93B6
:101F4000DF9300D000D0CDB7DEB76C011B012901B3
:101F50003A014701580180919005811106C08DE634
:101F600095E096D481E0809390058AE295E0F601B1
:101F7000978386838AEB95E00E94781880E590E04D
:101F80008EDF46E050E0B10189E090E00E94DD186C
:101F900000E020E040E060E0CE0101960E94C9240C
:101FA000CE010396B5DF95DF85017401A30192018F
:101FB000B101F6018681978170DC5C018130910569
:101FC00091F580E590E06BDFF60166817781CE01C7
:101FD00001960E949307CE0103969ADFF60166816F
:101FE0007781CE0101960E94A907CE01039682DF78
:101FF000F60166817781CE0101960E949E07CE018F
:1020000003967FDF66DFF60166817781CE01019658
:102010000E94B4074B815C816D817E81F601428311
:10202000538364837583C50126960FB6F894DEBF8B
:102030000FBECDBFDF91CF911F910F91FF90EF9019
:10204000DF90CF90BF90AF909F908F907F906F90D8
:102050005F904F903F902F9008958F929F92AF92F4
:10206000BF92CF92DF92EF92FF920F931F93CF9385
:10207000DF931F921F92CDB7DEB74C016A01590161
:102080008AEB95E069837A830E94781880E590E076
:1020900006DF46E050E069817A8189E090E00E94A5
:1020A000DD18C601029634DFC801029623DFC7019E
:1020B000029627DF0EDFF50142815381648175812D
:1020C000F40142835383648375830F900F90DF91F3
:1020D000CF911F910F91FF90EF90DF90CF90BF9025
:1020E000AF909F908F900895CF93DF93EC010E9463
:1020F000BF2480E590E0D3DEBE016E5F7F4F44E0F9
:1021000050E08FE090E00E94F319E3DECE01DF9112
:10211000CF91089523E034E0FC0131832083FB015B
:102120004281538164817581FC01428353836483BE
:10213000758308950F9300E020E040E060E080EABE
:1021400095E00E94C92488E895E00F910C94BF2483
:1021500081E086270895862F0895DC01ED91FC919A
:10216000048CF58DE02D199591E089270895CF9382
:10217000DF931F92CDB7DEB76983DC01ED91FC914F
:102180000280F381E02D41E050E0BE016F5F7F4FA0
:1021900019950F90DF91CF91089521E0FC0184857E
:1021A000843009F420E0822F0895FC019485FB011E
:1021B0008485981303C081E0943009F480E0089589
:1021C0000F931F93CF93DF93EC018A018C858430AA
:1021D00019F05ED5892B39F481E090E09B838A83E6
:1021E00080E090E001C0C801DF91CF911F910F9175
:1021F0000895FC018485843009F028C680E090E0D1
:102200000895CF93DF931F92CDB7DEB741E050E042
:10221000BE016F5F7F4FFC018485BED5181619067D
:102220001CF4898190E002C08FEF9FEF0F90DF9147
:10223000CF910895FC018485AFC50F931F93CF9371
:10224000DF931F92CDB7DEB78C01DC01ED91FC91DD
:102250000480F581E02D1995892B49F0BE016F5F4F
:102260007F4FF801848519D6898190E002C08FEFF5
:102270009FEF0F90DF91CF911F910F910895FC0177
:10228000848539C6CF92DF92EF92FF920F931F930E
:10229000CF93DF93CDB7DEB7AF970FB6F894DEBF1D
:1022A0000FBECDBF7C018B016A01CE0101960E9459
:1022B000BF24CE010996ECD2CE018A960E94BF249B
:1022C00068E875E0CE01849625DFBE016C5D7F4F26
:1022D000CE0101961FDBAE01465D5F4FB801CE0116
:1022E000019652DD81309105C1F4D701ED91FC9149
:1022F0000484F585E02D83E094E09DA38CA30CA5D8
:102300001DA52EA53FA50EA31FA328A739A7A6018B
:10231000BE016C5D7F4FC7011995AF960FB6F8945B
:10232000DEBF0FBECDBFDF91CF911F910F91FF9008
:10233000EF90DF90CF900895FC011382128248EE57
:1023400053E060E070E044835583668377838BE2DB
:1023500093E09183808384E084870895FC018485E1
:10236000843009F088C380E00895DF92EF92FF92F5
:102370000F931F93CF93DF93EC017B018A018C8530
:10238000843009F040C0D12C8D2D75D3811102C04D
:10239000DC8607C08B7F8831D9F3D39484E0D812D0
:1023A000F3CF8C85843079F12091100230911102A5
:1023B0002F5F3F4F11F420E030EC30931102209357
:1023C0001002409110025091110220E061E09CD374
:1023D000B7016E5F7F4FA8018C85E4D3811103C0E4
:1023E00084E08C8710C0CE01B9DF873149F061E00D
:1023F00070E080E090E00E94E120CE01AFDFEECF00
:1024000081E090E002C080E090E0DF91CF911F91E9
:102410000F91FF90EF90DF900895CF92DF92EF92AF
:10242000FF92CF93DF93EC018C85843031F10DD492
:102430000E94B2206B017C01CE0190DF882399F0CD
:1024400061E070E080E090E00E94E1200E94B22014
:102450006C197D098E099F09683E734081059105BD
:1024600058F38C852BD3EC85F0E0EE0FFF1FE85678
:10247000FA4F1182108284E08C87DF91CF91FF9018
:10248000EF90DF90CF900895CF93DF93EC018C8590
:102490008430C9F0CE0162DF8431A9F0882399F03D
:1024A000883189F08C3169F4E881F9810480F58103
:1024B000E02DCE01199521E0892B09F420E0822F2F
:1024C00003C081E001C080E0DF91CF9108950F93B8
:1024D00000E020E040E060E086EA95E00E94C92448
:1024E0000F9108950F9300E020E040E060E08CEA57
:1024F00095E00E94C9240F910895DC01ED91FC91B3
:10250000008CF18DE02D199423E034E0FC0131833F
:102510002083FB014089518962897389FC014283D0
:102520005383648375830895FC0184899589089594
:10253000FC01818D928D0895CF93DF931F92CDB7CB
:10254000DEB76983DC01ED91FC910280F381E02D1F
:1025500041E050E0BE016F5F7F4F19950F90DF9112
:10256000CF9108950895CF93DF93EC01888D843047
:1025700059F0A4D2E88DF0E0EE0FFF1FE856FA4FB5
:102580001182108284E0888FDF91CF910895FC0141
:10259000178A168A6E5F7F4F808DF2C4FC01808D92
:1025A00033C5CF93DF93EC019A018E899F89AB01EC
:1025B000BC01888DA1D42E893F89280F391F3F8BFC
:1025C0002E8BDF91CF9108950F931F93CF93DF93BD
:1025D0001F92CDB7DEB78C01FC01818D928D892BC6
:1025E00051F041E050E0BE016F5F7F4F808DD4D34A
:1025F000181619061CF08FEF9FEF08C0F801818DA7
:10260000928D0197928F818F898190E00F90DF9159
:10261000CF911F910F910895CF93DF93EC01898D96
:102620009A8D009719F48FEF9FEF0FC04817590745
:1026300008F0AC01888DB0D318161906A4F7298DBF
:102640003A8D281B390B3A8F298FDF91CF9108954E
:10265000CF93DF931F92CDB7DEB7FC01218D328D72
:10266000232B41F0BE016F5F7F4F808D16D489818F
:1026700090E002C08FEF9FEF0F90DF91CF91089510
:10268000FF920F931F93CF93DF93EC018B01888D03
:102690008430D1F4F12C8F2DEED1811102C0F88E4F
:1026A00006C08831E1F3F39484E0F812F4CF888D0A
:1026B000843051F01D870C871A8E198E20E0A801F6
:1026C00062E022D281E001C080E0DF91CF911F91D2
:1026D0000F91FF9008950F931F93CF93DF93CDB782
:1026E000DEB728970FB6F894DEBF0FBECDBF8C01C2
:1026F000F801818D928D892B49F0D801ED91FC91E3
:102700000680F781E02DC8011995F2CF808D9ED308
:10271000181619063CF548E050E0BE016F5F7F4F88
:10272000D80158968C9138D318161906ECF4BE01CE
:102730006F5F7F4FC8010E960E94E5248D8190E067
:10274000982F88272E81820F911DF801958B848BFD
:102750008F8190E0982F88272885820F911D928F76
:10276000818F02C080E090E028960FB6F894DEBF1B
:102770000FBECDBFDF91CF911F910F9108958F9222
:102780009F92AF92BF92CF92DF92EF92FF920F9300
:102790001F93CF93DF9300D000D0CDB7DEB78C016D
:1027A0007B014A01FC01808D843009F05DC073E03B
:1027B000A72E74E0B72EC12CD12CC50127D58111CD
:1027C00003C0F801C08E0AC08831D9F3FFEFCF1AD9
:1027D000DF0AB394E4E0CE16D10479F7F801808DD6
:1027E000843009F441C096E0E3E1F2E0DE011196A5
:1027F00001900D929A95E1F7F70193819F779C8361
:1028000094819D8395819E83B7016E5F7F4F90E099
:10281000982F882744E050E0845F9B4FCED4F80186
:10282000808D90E00496F82EEE24692DC701409625
:1028300042D4682DC70141963ED4F801808D90E0C6
:10284000982F882746E050E0BE016F5F7F4F8A5F78
:102850009B4FB3D4F801128E118E20E8A40162E0E0
:10286000808D52D181E001C080E026960FB6F894A9
:10287000DEBF0FBECDBFDF91CF911F910F91FF90B3
:10288000EF90DF90CF90BF90AF909F908F90089582
:10289000CF93DF93EC011B821A8248EE53E060E095
:1028A00070E04C835D836E837F838FE493E0998334
:1028B0008883CE010E960E94BF2484E0888FDF912A
:1028C000CF910895CF92DF92EF92FF920F931F93D3
:1028D000CF93DF93CDB7DEB7AF970FB6F894DEBFD7
:1028E0000FBECDBF7C018B016A01CE0101960E9413
:1028F000BF24CE010996CCDFCE018A960E94BF2468
:1029000068E875E0CE01849605DCBE016C5D7F4F02
:10291000CE0101960E948A0CAE01465D5F4FB80160
:10292000CE01019631DA81309105C1F4D701ED91E4
:10293000FC910088F189E02D83E094E09DA38CA3B5
:102940000CA51DA52EA53FA50EA31FA328A739A73B
:10295000A601BE016C5D7F4FC7011995AF960FB6FA
:10296000F894DEBF0FBECDBFDF91CF911F910F91C5
:10297000FF90EF90DF90CF9008950F9300E020E05C
:1029800040E060E082EB95E00E94C9240F91089539
:10299000CF92DF92EF92FF920F9330E0C12CF2E1E1
:1029A000DF2EFAE7EF2EF12C4C155D056E057F0545
:1029B00040F4F694E794D794C7943F5F3630A1F77C
:1029C00037E041E04327211102C050E701C050E544
:1029D000242F30E03595279523700C70202B252B64
:1029E000FC012083417041830F91FF90EF90DF90B5
:1029F000CF90089590E0982F882744E050E0845FBE
:102A00009B4FDBC3282F30E02C5F3F4F922F88274E
:102A1000860F971FFBC362E070E0F4CFFB01282F05
:102A200030E02C5F3F4F922F8827642F8E0F9F1F1F
:102A300042C3CF93DF93C82FD62F472F64E070E0B7
:102A4000EDDF4D2F65E070E08C2FDF91CF91E6CF69
:102A5000462F62E070E0E2CFCF93DF93C82FD62FEE
:102A6000472F60E170E0DADF4D2F61E170E08C2FDD
:102A7000DF91CF91D3CF0F931F93CF93DF9300D0EC
:102A8000CDB7DEB7182F00E021E040E059E06DE35C
:102A900070E0CE0101967CDF89819A8100DA63E0E3
:102AA00070E0812FAFDF8B8314DA8B810F900F9052
:102AB0000F90DF91CF911F910F9108950F931F9366
:102AC000CF93DF931F921F92CDB7DEB7182F00E090
:102AD00021E040E059E06DE370E0CE01019658DF5F
:102AE00089819A81DCD940E150E0612F8AEB95E041
:102AF00036D56FEF812FACDFECD90F900F90DF91BF
:102B0000CF911F910F910895CF92DF92EF92FF9294
:102B10000F931F93CF93DF931F921F92CDB7DEB712
:102B2000182FD62E7A01C22E8FEF860F853070F5C2
:102B3000812FC4DF00E021E040E059E06DE370E068
:102B4000CE01019625DF89819A81A9D94D2D4C2985
:102B500060E070E0812F62DFE114F10411F0B70151
:102B60000AC06091B8057091B9056F5F7F4F70938F
:102B7000B9056093B805812F5CDF41E050E0612F1B
:102B80008AEB95E0ECD4A5D981E001C080E00F90FC
:102B90000F90DF91CF911F910F91FF90EF90DF90F9
:102BA000CF900895CF92DF92EF92FF920F931F93F1
:102BB000CF93DF931F921F92CDB7DEB7182F7B0103
:102BC0006A01FB0180818F3F51F481818F3F99F42D
:102BD00082818F3F81F483818F3F69F42AC0811104
:102BE0000AC0FB018181811106C08281811103C06D
:102BF00083818823F1F0C114D104D9F000E021E0F1
:102C000040E059E06DE370E0CE010196C1DE8981BC
:102C10009A8145D9B701812FEDDEB601812F1CDFE6
:102C200044E050E0612F8AEB95E099D452D981E0DD
:102C300001C080E00F900F90DF91CF911F910F9115
:102C4000FF90EF90DF90CF9008950F931F93CF9355
:102C5000DF931F921F92CDB7DEB7182F00E021E05F
:102C600040E059E06DE370E0CE01019691DE89818C
:102C70009A8115D948E050E0612F8AEB95E06FD436
:102C800028D90F900F90DF91CF911F910F91089548
:102C9000BF92CF92DF92EF92FF920F931F93CF9349
:102CA000DF9300D0CDB7DEB7B82E6B017A0141308B
:102CB00088E0580718F0E12C98E0F92E00E021E0B8
:102CC00040E059E06DE370E0CE01019661DE89815C
:102CD0009A81E5D86B2D8AEB95E0C8D28C0163E030
:102CE00070E08B2D8FDE8B83F4D88B81873111F0D0
:102CF0008C3131F40E9467200E151F05F8F202C0D6
:102D0000E12CF12C00E021E040E059E06DE370E0BF
:102D1000CE0101963DDE89819A81C1D89701A60135
:102D20006B2D8AEB95E055D340E250E06B2D8AEB9A
:102D300095E015D48B2D6FDE84FD1CC063E070E040
:102D40008B2D60DE811106C0C4D88B2DB7DE80E0EC
:102D500090E015C0BED80E94672000E021E040E06E
:102D600059E06DE370E0CE01019612DE89819A810F
:102D700096D8E0CF60E18B2D6BDEABD8C7010F900A
:102D80000F900F90DF91CF911F910F91FF90EF90D7
:102D9000DF90CF90BF900895AF92BF92CF92DF9215
:102DA000EF92FF920F931F93CF93DF931F921F9287
:102DB000CDB7DEB7182F5B016A0100E021E040E0EB
:102DC00059E06DE370E0CE010196E2DD89819A81E0
:102DD00066D8612F8AEB95E079D27C01009799F44F
:102DE00063E070E0812F0EDE843109F18823F9F071
:102DF00021E030E08C3111F420E030E0EE24FF24BB
:102E0000E21AF30A14C0C816D9060CF476011E148F
:102E10001F046CF400E09701A501612F8AEB95E097
:102E200053D340E450E0612F8AEB95E098D351D81A
:102E3000C7010F900F90DF91CF911F910F91FF90DD
:102E4000EF90DF90CF90BF90AF9008950F931F93B6
:102E5000CF93DF9300D01F92CDB7DEB7182F00E0DD
:102E600021E040E059E06DE370E0CE01019690DD95
:102E700089819A8114D8612F8AEB95E027D28B83C0
:102E80009C8327D88B819C810F900F900F900F907F
:102E9000DF91CF911F910F910895EF92FF920F93C1
:102EA0001F93CF93DF931F921F92CDB7DEB7182FDA
:102EB0007B0100E021E040E059E06DE370E0CE01ED
:102EC000019666DD89819A810E944F0F01E021E021
:102ED00030E0A701612F8AEB95E0F6D20E94690FDE
:102EE00081E090E00F900F90DF91CF911F910F91B3
:102EF000FF90EF90089508959F92AF92BF92CF9266
:102F0000DF92EF92FF920F931F93CF93DF931F9265
:102F10001F92CDB7DEB7982E6B015A01790100E000
:102F200021E040E059E06DE370E0CE01019630DD34
:102F300089819A810E944F0F692D8AEB95E096D185
:102F40008E159F0528F4692D8AEB95E08FD17C01C1
:102F500087019501A601692D8AEB95E0D1D10E94E8
:102F6000690FC7010F900F90DF91CF911F910F91C3
:102F7000FF90EF90DF90CF90BF90AF909F9008951B
:102F8000CF92DF92EF92FF920F931F93CF93DF9335
:102F90001F921F92CDB7DEB7182F7B016A01FB018C
:102FA0008081811109C08181811106C082818111D6
:102FB00003C083818823D9F0C114D104C1F000E09B
:102FC00021E040E059E06DE370E0CE010196E0DCE5
:102FD00089819A810E944F0FB701812F0BDDB601C5
:102FE000812F3ADD0E94690F81E090E002C080E00D
:102FF00090E00F900F90DF91CF911F910F91FF9074
:10300000EF90DF90CF9008950F931F93CF93DF93AE
:103010001F921F92CDB7DEB7182F00E021E040E0ED
:1030200059E06DE370E0CE010196B2DC89819A81AE
:103030000E944F0F40E250E0612F8AEB95E08FD263
:10304000812FE9DC84FD1EC0812FE5DC83FF08C0F1
:1030500068E1812FFDDC0E94690F80E090E019C0DB
:103060000E94690F0E94672000E021E040E059E0E3
:103070006DE370E0CE0101968BDC89819A810E941C
:103080004F0FDECF60E1812FE3DC0E94690F81E00A
:1030900090E00F900F90DF91CF911F910F910895C5
:1030A0008EBD00000DB407FEFDCF8EB508952C989F
:1030B00008952C9A08951F93CF93DF931F921F9228
:1030C000CDB7DEB7182F6A839983F1DF80EFE8DF91
:1030D0009981892FE5DF812FE3DF6A81862FE0DF89
:1030E000E8DF81E00F900F90DF91CF911F9108955D
:1030F000CF93DF93EC016CE271E080E090E00E94FE
:10310000E1200E94F205249A80911C05882399F001
:103110009FB7F89480911C05813059F48DB380934A
:103120001A052DB380911B05809582238DBB9FBF0F
:1031300002C090931A0580E58CBD1DBC60E880E05C
:1031400090E0B9DF65E58BE190E0B5DF65E58AE108
:1031500090E0B1DF80911C05882361F09FB7F8945F
:1031600020911C0580911A05213019F48DBB9FBF59
:1031700001C08FBF80E090E49983888380E090E66F
:103180009987888780E098E49B838A8380E098E62B
:103190009B878A8780E090E59D838C8380E090E721
:1031A0009D878C8780E098E59F838E8380E098E7F9
:1031B0009F878E87DF91CF910895CF92DF92EF9214
:1031C000FF920F931F93CF93DF93EC017A018B0152
:1031D0006C01C40ED51ECC15DD0571F068DF80EFE3
:1031E0005FDF8D2F5DDF8C2F5BDF2196F8018191F2
:1031F0008F0156DF5EDFEFCFC701DF91CF911F91C7
:103200000F91FF90EF90DF90CF9008951F93CF9391
:10321000DF931F92CDB7DEB7182F998348DF8FE079
:103220003FDF9981892F3CDF812F3ADF80E038DF53
:1032300089833FDF89810F90DF91CF911F9108959E
:103240001F93CF93DF93182F60E270E0DBDBC82F72
:10325000D0E061E270E0812FD5DBDC2FCC279E012E
:10326000282BC901DF91CF911F910895FF920F93F1
:103270001F93CF93DF93F62EC0E0D0E08F2DE0DFD9
:103280008C01009719F08F2DDBDFEC01C017D107FF
:10329000A9F7CE01DF91CF911F910F91FF90089573
:1032A0001F93CF93DF93182F66E270E0ABDBC82F3C
:1032B000D0E067E270E0812FA5DBDC2FCC279E01F8
:1032C000282BC901DF91CF911F910895FF920F9391
:1032D0001F93CF93DF93F62EC0E0D0E08F2DE0DF79
:1032E0008C01009719F08F2DDBDFEC01C017D1079F
:1032F000A9F7CE01DF91CF911F910F91FF90089513
:103300006F927F929F92AF92BF92CF92DF92EF9295
:10331000FF920F931F93CF93DF931F92CDB7DEB72A
:10332000D82E962E3A01590164E270E0892D9983D6
:1033300069DBE82EF12C65E270E0892D63DBFE2C61
:10334000EE24E82AE60CF71C970137706D2C998162
:10335000792E690C711C690C711CD301ED91FC91E3
:10336000E20FF31FC901800F911F8130984098F040
:10337000C12C48E0D42EC21AD30AA601B501CF0150
:103380001CDFA8014C195D09B5016C0D7D1DF30111
:103390008081918103C0A801B501CF010EDFE00E4D
:1033A000F11E4F2D64E270E0892D38DB4E2D65E271
:1033B00070E0892D0F90DF91CF911F910F91FF90B9
:1033C000EF90DF90CF90BF90AF909F907F906F90E5
:1033D00025CB0F931F9389019A0140E050E090DFC5
:1033E0001F910F910895CF92DF92EF92FF920F936A
:1033F0001F93CF93DF93EC017A018B016C01C40E14
:10340000D51ECC15DD0579F052DE8FE049DE8D2F1B
:1034100047DE8C2F45DE219680E042DEF801819365
:103420008F0147DEEECFC701DF91CF911F910F9142
:10343000FF90EF90DF90CF900895AF92BF92CF9220
:10344000DF92EF92FF920F931F93CF93DF931F9220
:103450001F92CDB7DEB75A8349835901E981FA81BA
:10346000F7707C01E60EF11CE60EF11CD7011896F0
:103470008D919C9119978E0F9F1F98012E0F3F1FC2
:103480002130384090F0C12C68E0D62ECE1ADF0AE9
:10349000A601B501A8DFA8014C195D09B5016C0DA5
:1034A0007D1DF7018085918502C0A801B5010F90AF
:1034B0000F90DF91CF911F910F91FF90EF90DF90D0
:1034C000CF90BF90AF908FCF8F929F92AF92BF92CD
:1034D000CF92DF92EF92FF920F931F93CF93DF93E0
:1034E0006C01962E5A017901802E68E270E0892DD8
:1034F00089DAC82FD0E069E270E0892D83DADC2F09
:10350000CC27C82B87019501AE01692DC60195DF37
:10351000811018C0CE0DDF1D4D2F68E270E0892D9F
:103520007DDA4C2F69E270E0892DDF91CF911F91F8
:103530000F91FF90EF90DF90CF90BF90AF909F9052
:103540008F906CCADF91CF911F910F91FF90EF90F8
:10355000DF90CF90BF90AF909F908F900895CF93C2
:10356000C62F61E070E08C2F59DA61E070E08C2F9B
:1035700049DA8111FACFCF910895EF92FF920F931C
:103580001F93CF93DF931F921F92CDB7DEB78C01AD
:10359000CB0169837A830E94002C7C01F801F082C0
:1035A00081830E5F1F4FAC0169817A81C8010E943F
:1035B000092CC8018E0D9F1D0F900F90DF91CF91A8
:1035C0001F910F91FF90EF900895EF92FF920F934C
:1035D0001F93FC018AE093E091838083738362836D
:1035E000558344833783268311870087F386E286D9
:1035F000DF01A655BF4F11961C921E92129611968E
:103600001C921E92129611961C921E921296119660
:103610001C921E9212961D921C9215861486178675
:103620001686108A118AE855FF4F118210821F9169
:103630000F91FF90EF9008952F923F924F925F92DB
:103640006F927F928F929F92AF92BF92CF92DF92B2
:10365000EF92FF920F931F93CF93DF9300D01F92AF
:10366000CDB7DEB78C014B011A015901DC01ED9198
:10367000FC910484F585E02D41E050E019958130FE
:1036800019F020E030E06BC0F4013196FC83EB834D
:1036900094012B5F3F4F3A832983412C512C3201F7
:1036A0004394C12CD12C7601D801ED91FC91048476
:1036B000F585E02D950141E050E06B817C81C801EA
:1036C00019958130F1F6AB81BC81ED91BC83AB8360
:1036D000AE2FAF77B0E0A30192010E943B2AC60E45
:1036E000D71EE81EF91E87E0440C551C661C771C8B
:1036F0008A95D1F72B813C8189819A8128173907D6
:1037000009F4BFCFE7FDD0CFA10141505109C40159
:10371000821B930B480F591FCA01A0E0B0E0F801CB
:10372000208131818C159D05AE05BF0538F4D90186
:103730001C96ED91FC911D97950107C0D9011C962F
:10374000ED91FC911D979501A6016B817C81C801CB
:1037500019952B813C8128193909280F311DC90180
:103760000F900F900F900F90DF91CF911F910F91BD
:10377000FF90EF90DF90CF90BF90AF909F908F9091
:103780007F906F905F904F903F902F900895CF92D1
:10379000DF92EF92FF920F931F93CF93DF938C01F1
:1037A000EB017901C42ED12C970146E950E0BE010E
:1037B000C80142DFFC01009789F0A881B0E024E055
:1037C000B595A7952A95E1F7AC15BD0551F06AEBC3
:1037D00073E080E196E00E947925E6CF80E090E0FA
:1037E00001C0CF01DF91CF911F910F91FF90EF901A
:1037F000DF90CF9008956E5F6A3048F4E62FF0E0D6
:10380000EE0FFF1FEF58FC4F80819181089583EFE9
:1038100091E00895CF93DF93EC0180EE8A8B1B8AB1
:10382000E881F981BE016E5E7F4F0284F385E02D51
:1038300042E050E0CE011995E881F9810084F185DC
:10384000E02DCE01DF91CF9119940F931F93CF9369
:10385000DF93EC018B0180E1FB0180836EEE71E070
:10386000C80102968ADEDC0184E08C9382E0119626
:103870008C931197EC85FD853097C9F0E491EE2388
:10388000B1F086E011968C9311978889813009F008
:1038900057C08EE011968C9311978989813039F445
:1038A00011968C911197806211968C931197E885EF
:1038B000F985E491EE2339F011968C911197806887
:1038C00011968C931197EA85FB85E491EE2339F0EC
:1038D00011968C911197806411968C93119781E0C9
:1038E00012968C9312978CE213968C9313976E8199
:1038F0007F81FB018491882321F0CD0104963DDE78
:1039000008C014961C92149715961C921597CD0119
:1039100006966C857D856115710521F0FB0124916A
:10392000211113C068857985FB012491211125DEC1
:103930006A857B85FB012491222361F01EDE0AC08B
:10394000823009F0AACF8EE1A5CF17DE6E857F8584
:1039500014DEE8CF801B910B2EEF280FF801218396
:10396000DF91CF911F910F9108958F929F92AF9207
:10397000BF92CF92DF92EF920F931F93CF93DF937B
:103980005C016B01EA014901CA010E94002CE110AF
:1039900002C0029601C00496800F911F2E2D220FA7
:1039A0002063F6012193282F2F77880F892F881FF6
:1039B000990B9195009709F020682193009799F74A
:1039C000BE01CF01DADDEC01EE2069F0F501E8552A
:1039D000FF4F8181888380818983229680819181B4
:1039E000019691838083A801B401CE010E94252C09
:1039F000CE01800F911F8C199D09DF91CF911F91EE
:103A00000F91EF90DF90CF90BF90AF909F908F90ED
:103A10000895CF92DF92EF92FF920F931F93CF936F
:103A2000DF93EC01F02E6C0182E1C80ED11CE02E78
:103A300089019A01AB01B601CE0197DFE881F981D6
:103A40000284F385E02DAC01B601CE0119958823DF
:103A500021F1FF2019F124EF31E046E950E0B601F1
:103A6000CE01EADD0497C9F48A8990E054E0959587
:103A700087955A95E1F7049781F42C8930E0322F2D
:103A800022278D89282B2F5F3F4FC855DF4F81E0BC
:103A9000488159812417350709F080E0DF91CF91E3
:103AA0001F910F91FF90EF90DF90CF9008950F93AB
:103AB000FA0101900020E9F73197E41BF50B022F82
:103AC0009F01A7DF0F9108950F931F93CF93DF936B
:103AD0001F92CDB7DEB78B0132E8DB013C93FC01CE
:103AE000E855FF4F818112968C931297808113962F
:103AF0008C9380819181019691838083BA01C80162
:103B0000049629833ADD2981FC012193CF01801B92
:103B1000910B9EEF980FD80111969C930F90DF9117
:103B2000CF911F910F9108959F92AF92BF92CF9224
:103B3000DF92EF92FF920F931F93CF93DF93EC01ED
:103B4000E881F9810680F781E02D1995811102C085
:103B50008FEF5DC08E010E5E1F4FB801CE0175DE86
:103B6000E881F981482F50E00284F385E02DB80107
:103B7000CE011995882361F320E737E146E950E04B
:103B8000B801CE0159DD843019F78A89803201F7F6
:103B90008B898230E9F68D89811139C07E015E0101
:103BA0008AE0A80EB11C6701AAEACA0ED11CF60170
:103BB00080819181892B21F163E0962ED601ED91D0
:103BC000FC91408151812281B801CE017DDFE881E5
:103BD000F981482F50E00284F385E02DB801CE0131
:103BE0001995882309F4B4CF24EF31E049E0B801F6
:103BF000CE01CDDD892B21F49A9401F78EEF07C019
:103C0000B2E0EB0EF11CEA14FB0469F680E0DF91F0
:103C1000CF911F910F91FF90EF90DF90CF90BF90C9
:103C2000AF909F900895FC0171836083538342831A
:103C300024830895EF92FF920F931F93CF93DF9306
:103C4000CDB7DEB7A9970FB6F894DEBF0FBECDBFD4
:103C50007C01CB01BA018E010F5F1F4F40E00E9433
:103C6000582AF701628173812481A80180819181A2
:103C70001EDFA9960FB6F894DEBF0FBECDBFDF9151
:103C8000CF911F910F91FF90EF9008958C549F4F0B
:103C9000DC018D919C91DC01ED91FC910488F5890A
:103CA000E02D199591E0811101C090E0892F0895D0
:103CB000CF92DF92EF92FF920F931F93CF93DF93F8
:103CC0006B01EA018C549F4F7C01209731F1D701A1
:103CD0008D919C91DC01ED91FC910488F589E02D9A
:103CE0001995811102C080E019C08E01CB3FD1052A
:103CF00010F00AEF10E0F70180819181DC01ED9175
:103D0000FC910280F381E02DA801B6011995C81B32
:103D1000D90B80179107C9F2E6CF81E0DF91CF91EF
:103D20001F910F91FF90EF90DF90CF9008952AE0C0
:103D300033E0FC013183208308952AE033E0FC0165
:103D40003183208369C60F931F93CF93DF93EC01D8
:103D50008C010E5E1F4F86E9D8011D928A95E9F706
:103D60006A817B81C8010E94F92BFE01EC54FF4F50
:103D700080819181DC01ED91FC914C815D81068413
:103D8000F785E02DB801199521E0892B09F420E091
:103D9000822FDF91CF911F910F9108958F929F9263
:103DA000AF92BF92CF92DF92EF92FF920F931F9349
:103DB000CF93DF936B015A01922E832EC22FD32F04
:103DC00000E010E08C549F4F7C01F70180819181CD
:103DD000DC01ED91FC910488F589E02D199588238B
:103DE00059F1D7FD29C0D7018D919C91DC01ED914E
:103DF000FC910480F581E02D1995892BB1F0F70134
:103E000080819181DC01ED91FC910680F781E02DAC
:103E10001995F601E00FF11F80830F5F1F4F0A1500
:103E20001B0551F0C92DD82DDECF2A976AE070E02E
:103E300080E090E0C6D1C9CFC801DF91CF911F913A
:103E40000F91FF90EF90DF90CF90BF90AF909F9039
:103E50008F900895CF93DF93EC01CC54DF4F88818E
:103E60009981DC01ED91FC910488F589E02D19958B
:103E7000882349F088819981DC01ED91FC910288C9
:103E8000F389E02D199581E0DF91CF9108950F938B
:103E900000E020E040E060E08AEC95E07AD50F9108
:103EA0000895FC017183608308958F929F92AF9271
:103EB000BF92CF92DF92EF92FF92FC01808125D2D8
:103EC0009C01442737FD4095542F60E070E48CE955
:103ED00090E00E94122A2051374241095109CA013B
:103EE000B9010E945D280E9416296B017C0123E71D
:103EF0003FE745E759E30E9456292BEE3FEF43E9A0
:103F00005AE3D8D74B015C0129E537E44CEB53E386
:103F1000C701B6010E945629A70196010E945629A1
:103F2000A70196010E9456299B01AC01C501B4016D
:103F3000C1D79B01AC0160E070E080E89FE30E9484
:103F4000C22723E333E948E853E4B3D7FF90EF9067
:103F5000DF90CF90BF90AF909F908F9008950F9378
:103F60001F93CF93DF93EC01662351F0FBD069835D
:103F70007A838B839C83DF91CF911F910F9108955A
:103F8000F1D009811A812B813C81601B710B820B5E
:103F9000930B623371058105910540F763E070E092
:103FA00080E090E00ED1ECCF60E0D9CFFC0113AA05
:103FB00014AA15AA16AA118212821382148241151C
:103FC00051056105710519F0CB01BA01FAC00895D8
:103FD000FB01BA01A901DC01D296FC93EE93D197C3
:103FE00026E0CF018AC31F93CF93DF93EC01162FF6
:103FF00067E973E089A99AA971D54AE050E0612F79
:1040000089A99AA936D66EE973E089A99AA966D5D5
:1040100062E370E080E090E0DF91CF911F91D1C02A
:104020001F93CF93DF93EC01162F8D81882381F1AD
:1040300089A99AA9DC01ED91FC910480F581E02D1C
:104040001995892BA9F307C02637310511F12835B9
:10405000310509F41D8289A99AA9DC01ED91FC9131
:104060000480F581E02D1995181619068CF489A99C
:104070009AA9DC01ED91FC910680F781E02D19955C
:104080009C01332723363105F9F6612FCE01ABDFD2
:1040900083E6DF91CF911F9108950F931F93CF93E4
:1040A000DF931F92CDB7DEB78C01662341F081E02C
:1040B000F801858360E0C8014983B2DF4981F801D6
:1040C00045830F90DF91CF911F910F91089508952F
:1040D0001F920F920FB60F9211242F933F938F933D
:1040E0009F93AF93BF938091080690910906A0918A
:1040F0000A06B0910B063091070623E0230F2D37F7
:1041000020F40196A11DB11D05C026E8230F0296DB
:10411000A11DB11D20930706809308069093090600
:10412000A0930A06B0930B0680910C0690910D06A1
:10413000A0910E06B0910F060196A11DB11D8093AE
:104140000C0690930D06A0930E06B0930F06BF9138
:10415000AF919F918F913F912F910F900FBE0F9034
:104160001F9018952FB7F894609108067091090672
:1041700080910A0690910B062FBF08953FB7F894DF
:1041800080910C0690910D06A0910E06B0910F063D
:1041900026B5A89B05C02F3F19F00196A11DB11DA2
:1041A0003FBF6627782F892F9A2F620F711D811DBF
:1041B000911D42E0660F771F881F991F4A95D1F71E
:1041C00008958F929F92AF92BF92CF92DF92EF921B
:1041D000FF926B017C01D2DF4B015C01C114D10461
:1041E000E104F104E1F073DFC9DF681979098A0994
:1041F0009B09683E73408105910580F321E0C21A56
:10420000D108E108F10888EE880E83E0981EA11C11
:10421000B11CC114D104E104F10431F7DFCFFF90E8
:10422000EF90DF90CF90BF90AF909F908F900895C8
:104230008230910538F0880F991F880F991F0597D4
:104240000197F1F70895789484B5826084BD84B5B0
:10425000816084BD85B5826085BD85B5816085BD81
:10426000EEE6F0E0808181608083E1E8F0E010829A
:10427000808182608083808181608083E0E8F0E0DB
:10428000808181608083E1EBF0E0808184608083C5
:10429000E0EBF0E0808181608083E1E9F0E0808103
:1042A00082608083808181608083E0E9F0E08081AA
:1042B00081608083E1EAF0E0808182608083808198
:1042C00081608083E0EAF0E0808181608083E1E2C8
:1042D000F1E0808182608083808181608083E0E280
:1042E000F1E0808181608083EAE7F0E08081846092
:1042F00080838081826080838081816080838081EF
:10430000806880831092C1000895863308F0865338
:1043100020917B00982F9870277F922B90937B00A1
:1043200087702091120290E4299F90011124822B22
:1043300080937C0080917A00806480937A008091E1
:104340007A0086FDFCCF809178002091790090E082
:10435000922B089590E0FC013197E231F10508F0CD
:104360004CC0EE58FF4F0C942E2A809180008F771E
:1043700003C0809180008F7D80938000089580919C
:104380008000877FF9CF84B58F7702C084B58F7D99
:1043900084BD08958091B0008F7703C08091B000F4
:1043A0008F7D8093B0000895809190008F7707C033
:1043B000809190008F7D03C080919000877F8093D3
:1043C000900008958091A0008F7707C08091A00091
:1043D0008F7D03C08091A000877F8093A000089507
:1043E000809120018F7707C0809120018F7D03C0CD
:1043F00080912001877F809320010895CF93DF93E0
:1044000090E0FC01EF5EFB4F2491FC01E95AFB4F69
:104410008491882349F190E0880F991FFC01E954A9
:10442000FB4FA591B49183569B4FFC01C591D4914C
:104430009FB7611108C0F8948C91209582238C93CA
:10444000888182230AC0623051F4F8948C91322F13
:10445000309583238C938881822B888304C0F894C1
:104460008C91822B8C939FBFDF91CF9108950F93F6
:104470001F93CF93DF931F92CDB7DEB7282F30E085
:10448000F901E553FC4F8491F901EF5EFB4F149164
:10449000F901E95AFB4F04910023C1F0882319F078
:1044A000698358DF6981E02FF0E0EE0FFF1FE356CC
:1044B000FB4FA591B4919FB7F8948C91611103C003
:1044C0001095812301C0812B8C939FBF0F90DF91AA
:1044D000CF911F910F9108950E94F52BFC01818DC2
:1044E000228D90E0805C9F4F821B91098F739927EA
:1044F0000895FC01918D828D981731F0828DE80F1F
:10450000F11D858D90E008958FEF9FEF0895FC01D8
:10451000918D828D981761F0828DDF01A80FB11DFA
:104520005D968C91928D9F5F9F73928F90E008951E
:104530008FEF9FEF08958CE394E2892B39F080E0B0
:1045400090E0892B19F098D1811125C080E090E08E
:10455000892B41F080E090E0892B21F00E9400003F
:1045600081111CC080E090E0892B41F080E090E058
:10457000892B21F00E940000811113C080E090E09F
:10458000892BA1F080E090E0892B81F00E9400004F
:1045900081110AC008950E940000D8CF0E94000037
:1045A000E1CF0E940000EACF0C9400000895FC01C6
:1045B000848DDF01A80FB11DA35ABF4F2C91848DAC
:1045C00090E001968F739927848FA689B7892C93E1
:1045D000A089B1898C9180648C93938D848D98137C
:1045E00006C00288F389E02D80818F7D8083089545
:1045F000CF93DF93EC01888D8823C1F0EA89FB8992
:10460000808185FD05C0A889B9898C9186FD0EC081
:104610000FB607FCF5CF808185FFF2CFA889B98955
:104620008C9185FFEDCFCE01C2DFE8CFDF91CF9136
:104630000895CF92DF92FF920F931F93CF93DF9352
:104640001F92CDB7DEB76C0181E0D60158968C93EE
:1046500058975B969C915B975C968C915C979813AE
:1046600007C05096ED91FC915197808185FD2DC03A
:10467000F601038D10E00F5F1F4F0F731127F02E0F
:10468000F601848DF81210C00FB607FCF9CFD601E1
:104690005096ED91FC915197808185FFF1CFC60135
:1046A000698385DF6981ECCF838DE80FF11DE35AC3
:1046B000FF4F6083D6015B960C935B975296ED910A
:1046C000FC915397808180620CC0D6015696ED9183
:1046D000FC91579760835096ED91FC9151978081A2
:1046E0008064808381E090E00F90DF91CF911F91F3
:1046F0000F91FF90DF90CF900895BF92CF92DF92FD
:10470000EF92FF92CF93DF93EC016A017B01B22E0F
:10471000E889F98982E08083411581EE58076105B7
:10472000710599F060E079E08DE390E0A7019601D2
:1047300057D621503109410951095695479537956A
:104740002795211580E1380790F0E889F9891082D2
:1047500060E874E88EE190E0A701960141D621500F
:104760003109410951095695479537952795EC85AB
:10477000FD853083EE85FF852083188EEC89FD89C9
:10478000B082EA89FB89808180618083EA89FB8924
:10479000808188608083EA89FB898081806880834A
:1047A000EA89FB8980818F7D8083DF91CF91FF90A3
:1047B000EF90DF90CF90BF9008951F920F920FB6A9
:1047C0000F9211240BB60F922F938F939F93EF9319
:1047D000FF93E0912006F09121068081E09126066A
:1047E000F091270682FD12C09081809129068F5F8B
:1047F0008F7320912A06821751F0E0912906F0E08C
:10480000E05FF94F958F8093290601C08081FF9169
:10481000EF919F918F912F910F900BBE0F900FBE34
:104820000F901F9018951F920F920FB60F921124A0
:104830000BB60F922F933F934F935F936F937F939A
:104840008F939F93AF93BF93EF93FF9380E196E095
:10485000AEDEFF91EF91BF91AF919F918F917F91CC
:104860006F915F914F913F912F910F900BBE0F90E1
:104870000FBE0F901F90189580E196E02FDE21E08B
:10488000892B09F420E0822F0895109213061092CC
:10489000120688EE93E0A0E0B0E0809314069093B7
:1048A0001506A0931606B093170683EF93E0909336
:1048B00011068093100685EC90E090931D0680937E
:1048C0001C0684EC90E090931F0680931E0680ECFB
:1048D00090E0909321068093200681EC90E09093E5
:1048E00023068093220682EC90E090932506809325
:1048F000240686EC90E0909327068093260610927B
:10490000290610922A0610922B0610922C06089562
:10491000AF92BF92CF92DF92EF92FF920F931F93CD
:10492000CF93DF936C017B01C0E0D0E000E010E0AA
:10493000F601EC0FFD1F4AE050E06281C70199D1FA
:104940005C016EE2C701CBD08A0D9B1D080F191FB9
:104950002196C330D10561F74AE050E0F601658148
:10496000C70187D1800F911FDF91CF911F910F91C8
:10497000FF90EF90DF90CF90BF90AF90089523E02D
:1049800034E0FC0131832083128213821482158269
:1049900008950F93FC0183E094E091838083628308
:1049A0004383248305830F91089523E034E0FC01C1
:1049B00031832083FB014081518162817381FC013D
:1049C00042835383648375830895FB014081518141
:1049D00062817381FC0142835383648375830895EC
:1049E00083E094E09093AE068093AD061092AF06FC
:1049F0001092B0061092B1061092B2060895089572
:104A000022DCFDDF0E943F05CBE9D2E20E94640375
:104A10002097E1F390DDFACF03C6CF92DF92EF92B9
:104A2000FF920F931F93CF93DF937C016A01EB01F9
:104A300000E010E00C151D0571F06991D701ED91B2
:104A4000FC910190F081E02DC7011995892B19F097
:104A50000F5F1F4FEFCFC801DF91CF911F910F91D3
:104A6000FF90EF90DF90CF9008956115710581F070
:104A7000DB010D900020E9F7AD0141505109461BC3
:104A8000570BDC01ED91FC910280F381E02D19942C
:104A900080E090E00895EF92FF920F931F93CF93E1
:104AA000DF938C017B01C0E0D0E0F701EC0FFD1F2C
:104AB0006491662359F0F801A081B181ED91FC91D8
:104AC000C8011995892B11F02196EFCFCE01DF9106
:104AD000CF911F910F91FF90EF900895C6CFDC0109
:104AE000ED91FC910190F081E02D199464EA73E05E
:104AF000BCCF0F931F93CF93DF93EC01CCDF8C01DE
:104B0000CE01F4DF800F911FDF91CF911F910F91A4
:104B100008950F931F93CF93DF93EC01A6DF8C01D1
:104B2000CE01E4DF800F911FDF91CF911F910F9194
:104B300008958F929F92AF92BF92DF92EF92FF9271
:104B40000F931F93CF93DF93CDB7DEB7A1970FB627
:104B5000F894DEBF0FBECDBF7C01F42FD52ECB0164
:104B600019A2223008F42AE08E010F5D1F4F822E19
:104B7000912CA12CB12C6F2F7D2DA501940130D447
:104B8000F22FD32ECA01015011096A3014F4E0E368
:104B900001C0E7E3E60FD801EC93232B242B252B50
:104BA00051F7B801C70161DFA1960FB6F894DEBFD7
:104BB0000FBECDBFDF91CF911F910F91FF90EF906E
:104BC000DF90BF90AF909F908F900895CF92DF922B
:104BD000EF92FF920F931F93CF93DF93EC016A0143
:104BE0007B012115310579F4E881F9810190F0818B
:104BF000E02D642FDF91CF911F910F91FF90EF90E7
:104C0000DF90CF9019942A303105D9F477FF18C07E
:104C10006DE265DF8C0144275527BA014C195D0907
:104C20006E097F092AE0CE0184DF800F911FDF919A
:104C3000CF911F910F91FF90EF90DF90CF9008954B
:104C40002AE0B701A601CE01DF91CF911F910F910C
:104C5000FF90EF90DF90CF906CCF2115310541F49C
:104C6000DC01ED91FC910190F081E02D642F19940D
:104C700060CF9A01462F50E060E070E0EECF4F9297
:104C80005F926F927F928F929F92AF92BF92CF92DC
:104C9000DF92EF92FF920F931F93CF93DF93EC017C
:104CA0006A017B01B22E9A01AB01C701B60161D343
:104CB000882319F065E074E024C026013701E894E8
:104CC00077F82FEF3FEF4FE75FE7C301B20151D312
:104CD00081110CC02FEF3FEF4FE75FE7C301B20137
:104CE0004DD118161CF469E074E00BC02FEF3FEFB4
:104CF0004FE75FE4C701B60190D21816A4F46DE047
:104D000074E0CE01DF91CF911F910F91FF90EF9052
:104D1000DF90CF90BF90AF909F908F907F906F90DB
:104D20005F904F90A2CE2FEF3FEF4FE75FECC701B0
:104D3000B60124D187FDE3CF20E030E0A901C7010F
:104D4000B6011CD187FF09C06DE2CE01C8DE8C011F
:104D5000F7FAF094F7F8F09402C000E010E0A12C0C
:104D600060E070E080E09FE3AB1439F020E030E0D9
:104D700040E251E407D1A394F7CF9B01AC01C701F6
:104D8000B60198D06B017C016AD12B013C0193D113
:104D90009B01AC01C701B6018CD06B017C012AE0FC
:104DA000B301A201CE01C5DE080F191FBB2031F0EF
:104DB00067E572E0CE0159DE080F191F7B2C7720C2
:104DC00019F120E030E040E251E4C701B6016ED2B3
:104DD0006B017C013FD14B01AA2497FCA094BA2C13
:104DE0002AE030E0B501A401CE01F0DE080F191F62
:104DF000C501B40162D19B01AC01C701B60159D014
:104E00006B017C017A94DBCFC801DF91CF911F91B8
:104E10000F91FF90EF90DF90CF90BF90AF909F9059
:104E20008F907F906F905F904F90089528CFCF9391
:104E3000DF9300D01F92CDB7DEB79B01AC016115A7
:104E400071058105910559F069833A834B835C8331
:104E5000C0D429813A814B815C81E4D203C060E0F7
:104E600070E0CB010F900F900F900F90DF91CF91DA
:104E70000895CF92DF92EF92FF926B017C0162174F
:104E80007307840795075CF4CA01B9016C197D09A1
:104E90008E099F09CCDF6C0D7D1D8E1D9F1DFF901F
:104EA000EF90DF90CF90089570E09B01382BC901FF
:104EB00008955058BB27AA270ED075C166D130F08F
:104EC0006BD120F031F49F3F11F41EF45BC10EF45E
:104ED000E095E7FB51C1E92F77D180F3BA1762075C
:104EE00073078407950718F071F49EF58FC10EF4CF
:104EF000E0950B2EBA2FA02D0B01B90190010C01EA
:104F0000CA01A0011124FF27591B99F0593F50F401
:104F1000503E68F11A16F040A22F232F342F442759
:104F2000585FF3CF469537952795A795F040539551
:104F3000C9F77EF41F16BA0B620B730B840BBAF021
:104F40009150A1F0FF0FBB1F661F771F881FC2F78C
:104F50000EC0BA0F621F731F841F48F487957795A0
:104F60006795B795F7959E3F08F0B3CF9395880F57
:104F700008F09927EE0F979587950895D9D008F4F2
:104F800081E008950CD00FC107D140F0FED030F081
:104F900021F45F3F19F0F0C0511139C1F3C014D1B1
:104FA00098F39923C9F35523B1F3951B550BBB27F0
:104FB000AA2762177307840738F09F5F5F4F220F9D
:104FC000331F441FAA1FA9F333D00E2E3AF0E0E896
:104FD00030D091505040E695001CCAF729D0FE2FE2
:104FE00027D0660F771F881FBB1F26173707480774
:104FF000AB07B0E809F0BB0B802DBF01FF2793582A
:105000005F4F2AF09E3F510568F0B6C000C15F3F78
:10501000ECF3983EDCF3869577956795B795F79511
:105020009F5FC9F7880F911D9695879597F9089509
:10503000E1E0660F771F881FBB1F621773078407A5
:10504000BA0720F0621B730B840BBA0BEE1F88F7B4
:10505000E095089504D06894B111D9C00895BCD0EA
:1050600088F09F5790F0B92F9927B751A0F0D1F051
:10507000660F771F881F991F1AF0BA95C9F712C0DB
:10508000B13081F0C3D0B1E00895C0C0672F782F50
:105090008827B85F39F0B93FCCF386957795679547
:1050A000B395D9F73EF490958095709561957F4FB3
:1050B0008F4F9F4F0895E89409C097FB3EF4909559
:1050C0008095709561957F4F8F4F9F4F9923A9F0E1
:1050D000F92F96E9BB279395F69587957795679570
:1050E000B795F111F8CFFAF4BB0F11F460FF1BC0B4
:1050F0006F5F7F4F8F4F9F4F16C0882311F096E947
:1051000011C0772321F09EE8872F762F05C06623F4
:1051100071F096E8862F70E060E02AF09A95660FAD
:10512000771F881FDAF7880F9695879597F9089566
:10513000990F0008550FAA0BE0E8FEEF16161706A8
:10514000E807F907C0F012161306E407F50798F010
:10515000621B730B840B950B39F40A2661F0232B29
:10516000242B252B21F408950A2609F4A140A695A5
:105170008FEF811D811D089597F99F6780E870E08A
:1051800060E008959FEF80EC089500240A941616BD
:10519000170618060906089500240A941216130625
:1051A000140605060895092E0394000C11F48823B3
:1051B00052F0BB0F40F4BF2B11F460FF04C06F5FCF
:1051C0007F4F8F4F9F4F089557FD9058440F551FA5
:1051D00059F05F3F71F04795880F97FB991F61F079
:1051E0009F3F79F087950895121613061406551FF0
:1051F000F2CF4695F1DF08C0161617061806991F5C
:10520000F1CF86957105610508940895E894BB2750
:1052100066277727CB0197F908958ADF08F48FEF87
:1052200008950EF0AAC0AECF6894A6CFD5DFC8F31C
:105230009923D1F3C6F3DF93CF931F930F93FF927C
:10524000C92FDD2788232AF02197660F771F881F33
:10525000DAF720E030E040E85FEB9FE3883920F0A8
:10526000803E30F021968F7725DEE8E0F1E003C044
:1052700021DEE5E3F1E08FD08B01BE01EC01FB2ED6
:105280006F5771097595771F880B990B16DF28E109
:1052900032E741E35FE316D0AF2D9801AE01FF90F6
:1052A0000F911F91CF91DF9116DE7DCF0BD07BCF79
:1052B0006CDF28F071DF18F0952309F05DCF62CF25
:1052C0001124A5CF81DFA0F3959FD1F3950F50E076
:1052D000551F629FF001729FBB27F00DB11D639FA8
:1052E000AA27F00DB11DAA1F649F6627B00DA11D4E
:1052F000661F829F2227B00DA11D621F739FB00DF4
:10530000A11D621F839FA00D611D221F749F332763
:10531000A00D611D231F849F600D211D822F762FFC
:105320006A2F11249F5750408AF0E1F088234AF0F9
:10533000EE0FFF1FBB1F661F771F881F9150504045
:10534000A9F79E3F510570F017CF61CF5F3FECF397
:10535000983EDCF3869577956795B795F795E79531
:105360009F5FC1F7FE2B880F911D9695879597F942
:105370000895DEDE880B990B08959F3F31F0915020
:1053800020F4879577956795B795880F911D969529
:10539000879597F90895DF93CF931F930F93FF920B
:1053A000EF92DF927B018C01689405C0DA2EEF0149
:1053B00089DFFE01E894A59125913591459155919C
:1053C000AEF3EF0188DDFE019701A801DA9479F7C9
:1053D000DF90EF90FF900F911F91CF91DF91089593
:1053E000A1E21A2EAA1BBB1BFD010DC0AA1FBB1FE9
:1053F000EE1FFF1FA217B307E407F50720F0A21B5B
:10540000B30BE40BF50B661F771F881F991F1A94C7
:1054100069F760957095809590959B01AC01BD01F1
:10542000CF010895052E97FB16F400940FD057FD79
:1054300005D0D6DF07FC02D046F408C05095409551
:10544000309521953F4F4F4F5F4F08959095809530
:10545000709561957F4F8F4F9F4F0895EE0FFF1FFF
:105460000590F491E02D19946927962769277827EC
:105470008727782708950DD0A59F900DB49F900D94
:10548000A49F800D911D112408950790F691E02DA1
:105490001994A29FB001B39FC001A39F700D811DFD
:1054A0001124911DB29F700D811D1124911D08952D
:1054B000EF920F931F93CF93DF93E80147FF02C052
:1054C00034E101C034E0E42FFF27E7FDF095F7FF5A
:1054D00003C0F195E195F109E32E022F2E2FAE01C5
:1054E000CCD1CE01DF91CF911F910F91EF90089514
:1054F000CF93DF938230910510F482E090E0E09149
:10550000B506F091B60620E030E0A0E0B0E03097BC
:1055100039F14081518148175907B8F048175907A8
:1055200071F482819381109729F013969C938E9346
:1055300012972CC09093B6068093B50627C021150C
:10554000310531F04217530718F0A901DB0101C002
:10555000EF019A01BD01DF010280F381E02DD7CF79
:1055600021153105F9F0281B390B2430310580F461
:105570008A819B816115710521F0FB0193838283F0
:1055800004C09093B6068093B506FE01329644C0DF
:10559000FE01E20FF31F8193919322503109398369
:1055A00028833AC02091B3063091B406232B41F4EE
:1055B00020910202309103023093B4062093B30687
:1055C00020910002309101022115310541F42DB7DF
:1055D0003EB74091040250910502241B350BE09127
:1055E000B306F091B406E217F307A0F42E1B3F0BAD
:1055F0002817390778F0AC014E5F5F4F2417350745
:1056000048F04E0F5F1F5093B4064093B30681934A
:10561000919302C0E0E0F0E0CF01DF91CF910895D7
:10562000CF93DF93009709F487C0FC013297138270
:105630001282C091B506D091B606209781F42081E0
:105640003181280F391F8091B3069091B4068217DB
:10565000930779F5F093B406E093B3066DC0DE01CD
:1056600020E030E0AE17BF0750F412964D915C91E8
:1056700013979D014115510509F1DA01F3CFB38369
:10568000A28340815181840F951F8A179B0771F473
:105690008D919C911197840F951F02969183808321
:1056A00012968D919C9113979383828321153105D6
:1056B00029F4F093B606E093B5063EC0D9011396DF
:1056C000FC93EE9312974D915D91A40FB51FEA17CD
:1056D000FB0779F480819181840F951F0296D9018F
:1056E00011969C938E938281938113969C938E93B3
:1056F0001297E0E0F0E08A819B81009719F0FE01AB
:10570000EC01F9CFCE01029628813981820F931FD7
:105710002091B3063091B4062817390769F4309701
:1057200029F41092B6061092B50602C013821282B6
:10573000D093B406C093B306DF91CF9108958F92B2
:105740009F92AF92BF92CF92DF92EF92FF92CF9350
:10575000DF93EC01688179818A819B8161157105F4
:105760008105910521F464E279ED8BE597E02DE167
:1057700033EF41E050E056DE49015A019B01AC0194
:10578000A7EAB1E478DE6B017C01ACEEB4EFA501D1
:105790009401D3D2C60ED71EE81EF91EF7FE06C02E
:1057A00081E0C81AD108E10880E8F80AC882D982E5
:1057B000EA82FB82C701B6019F77DF91CF91FF900C
:1057C000EF90DF90CF90BF90AF909F908F90089513
:1057D000B6CF86E092E0B3CF6093060270930702E3
:1057E0008093080290930902089581E090E0F89474
:1057F000A8C2FB01DC0105900D920020E1F708959D
:10580000FC0105900020E9F7809590958E0F9F1F71
:105810000895FB01DC014150504048F005900D9285
:105820000020C9F701C01D9241505040E0F7089593
:10583000FB01DC0104C08D910190801921F44150DD
:105840005040C8F7881B990B08956817790768F4CA
:10585000FB01DC01E40FF51FA40FB51F02C002908D
:105860000E9241505040D8F708955CC2FB01DC0114
:1058700001900D920020E1F708956F927F929F9220
:10588000AF92BF92CF92DF92EF92FF920F931F934E
:10589000CF93DF93CDB7DEB729970FB6F894DEBF6D
:1058A0000FBECDBF6A01B22E102F0C3320F4FF249F
:1058B000F394F00E02C04CE3F42E0F2D27E0AE015E
:1058C0004F5F5F4F57D17981272F2970213031F0F9
:1058D000E1FC06C0E0FC06C060E005C06DE203C06C
:1058E0006BE201C060E2AE2DA07173FF36C066238B
:1058F00011F084E001C083E08B1510F4B81A01C0E8
:10590000B12CA1110BC0F6018B2D90E2882319F068
:1059100091938150FBCFCB0CD11CB12C662331F07D
:10592000F601608396012F5F3F4F6901C601039620
:10593000E2FE05C02EE4F601208331E404C02EE629
:10594000F601208331E631832283FC012B2D30E2E6
:105950002223F1F131932150FBCF72FF40C0662327
:1059600011F084E001C083E08B1510F4B81A01C077
:10597000B12CA1110BC0F6018B2D90E2882319F0F8
:1059800091938150FBCFCB0CD11CB12C662331F00D
:10599000F601608396012F5F3F4F6901C6010396B0
:1059A000E2FE07C029E4F60120832EE4218326E4E9
:1059B00006C029E6F60120832EE6218326E622830F
:1059C000FC012B2D30E2222319F031932150FBCF23
:1059D000FC01EB0DF11D10828EEF9FEFB7C0B1E01F
:1059E000611101C0B0E04B2F50E01816190624F4E5
:1059F0009C012F5F3F4F02C021E030E0240F351F94
:105A0000112329F0412F50E04F5F5F4F02C040E06B
:105A100050E0420F531F2B2D30E04217530714F470
:105A2000B41A01C0B12C2E2D287159F4F6012B2D7A
:105A300030E2222319F031932150FBCFCB0CD11C43
:105A4000B12CBB2331F0F601608396012F5F3F4FED
:105A50006901A1110BC0F6012B2D30E3222319F0AF
:105A600031932150FBCFCB0CD11CB12CF80E0A8105
:105A7000372F3071A32E74FF03C0013309F4FA9459
:105A80001F142CF42F2D293018F028E001C021E03C
:105A9000682F392F97FF02C060E030E0462F532F68
:105AA000612C712C3EE2932EBC01621B71099B019B
:105AB000DC01A41BB50BE1E0F0E0EC0FFD1FAE0F25
:105AC000BF1FE12EF12CF194E194F1084F3FFFEF5D
:105AD0005F0731F4F6019082B6016F5F7F4F6B0173
